:020000021000EC
:10F0000000000120ED7E0300157F0300177F030041
:10F01000197F03001B7F03001D7F03000000000019
:10F020000000000000000000000000001F7F03003F
:10F03000217F030000000000237F0300257F0300E1
:10F0400055360300277F0300277F0300A52C03000C
:10F05000277F030071420300312003006137030062
:10F06000277F0300277F0300277F0300277F0300FC
:10F07000277F0300693D0300277F0300277F0300EC
:10F08000277F030021480300277F0300277F030019
:10F09000DD480300277F0300D9750300277F0300A5
:10F0A000277F0300277F0300277F03001940030009
:10F0B000853203003D330300000000000000000023
:10F0C000277F0300277F0300277F0300277F03009C
:10F0D000277F0300277F0300277F03000000000035
:10F0E0000000000000000000000000000000000020
:10F0F0000000000000000000000000000000000010
:10F1000000000000000000000000000000000000FF
:10F1100000000000000000000000000000000000EF
:10F1200000000000000000000000000000000000DF
:10F1300000000000000000000000000000000000CF
:10F1400000000000000000000000000000000000BF
:10F1500000000000000000000000000000000000AF
:10F16000000000000000000000000000000000009F
:10F17000000000000000000000000000000000008F
:10F18000000000000000000000000000000000007F
:10F19000000000000000000000000000000000006F
:10F1A000000000000000000000000000000000005F
:10F1B000000000000000000000000000000000004F
:10F1C000000000000000000000000000000000003F
:10F1D000000000000000000000000000000000002F
:10F1E000000000000000000000000000000000001F
:10F1F000000000000000000000000000000000000F
:10F2000010B5054C237833B9044B13B10448AFF360
:10F2100000800123237010BDF04200200000000098
:10F2200084C70400084B10B51BB108480849AFF368
:10F2300000800848036803B910BD074B002BFBD0C2
:10F24000BDE81040184700BF0000000084C704005C
:10F25000F4420020C842002000000000154B002BA3
:10F2600008BF134B9D46A3F5803A00218B460F46FD
:10F270001348144A121A00F065F80F4B002B00D007
:10F2800098470E4B002B00D0984700200021040027
:10F290000D000D48002802D00C48AFF3008000F0AC
:10F2A0002BF82000290000F08BF900F011F800BFC6
:10F2B0000000080000000120000000000000000025
:10F2C000F0420020748800200000000000000000D0
:10F2D00008B5074B044613B10021AFF30080054B7E
:10F2E0001868836A03B19847204600F033F800BFDE
:10F2F00000000000384E040070B50E4B0E4CE41AAE
:10F30000A41000251E46A54204D056F82530984783
:10F310000135F8E725F082FD084C094BE41AA410EA
:10F3200000251E46A54204D056F8253098470135E1
:10F33000F8E770BDC0420020C0420020C442002057
:10F34000C042002002440346934202D003F8011B4E
:10F35000FAE77047FEE700BFBFF34F8F0549064B42
:10F36000CA6802F4E0621343CB60BFF34F8F00BF63
:10F37000FDE700BF00ED00E00400FA0532DF704752
:10F380003EDF704700283ED01F4B204A1B6800BF5D
:10F3900000BF00BF00BF00BF00BF00BF00BF93425F
:10F3A0002FD000BF00BF00BF00BF00BF00BF00BF25
:10F3B00000BF00BF00BF00BF00BF00BF00BF00BF55
:10F3C00000BF00BF00BF00BF00BF00BF00BF00BF45
:10F3D00000BF00BF00BF00BF00BF00BF00BF00BF35
:10F3E00000BF00BF00BF00BF00BF00BF00BF00BF25
:10F3F00000BF00BF00BF00BF00BF00BF00BF00BF15
:10F4000000BF0138C3D17047A84200200024F40097
:10F41000A8B108B50378012B00D008BD01F05EFB50
:10F4200070B94FF0A0434FF40032C3F83427FFF710
:10F43000A5FF0028F1D0BDE8084015F001B97047DC
:10F4400015F0FEF8EDE700BF08B50378012B5ED09C
:10F45000022B5BD1012002F017FE002840F09D80B6
:10F4600001F03CFB002840F095804FF0A0434C4950
:10F47000C3F82C174B4A4FF40031C3F83017126809
:10F48000494941F2883300BF00BF00BF00BF00BF41
:10F4900000BF00BF00BF8A422FD000BF00BF00BF27
:10F4A00000BF00BF00BF00BF00BF00BF00BF00BF64
:10F4B00000BF00BF00BF00BF00BF00BF00BF00BF54
:10F4C00000BF00BF00BF00BF00BF00BF00BF00BF44
:10F4D00000BF00BF00BF00BF00BF00BF00BF00BF34
:10F4E00000BF00BF00BF00BF00BF00BF00BF00BF24
:10F4F00000BF00BF00BF00BF00BF013BC3D1FFF78B
:10F500003DFF08B115F09CF8FFF726FF08BD254B1D
:10F5100025491A6841F2883300BF00BF00BF00BF11
:10F5200000BF00BF00BF00BF8A422FD000BF00BF96
:10F5300000BF00BF00BF00BF00BF00BF00BF00BFD3
:10F5400000BF00BF00BF00BF00BF00BF00BF00BFC3
:10F5500000BF00BF00BF00BF00BF00BF00BF00BFB3
:10F5600000BF00BF00BF00BF00BF00BF00BF00BFA3
:10F5700000BF00BF00BF00BF00BF00BF00BF00BF93
:10F5800000BF00BF00BF00BF00BF00BF013BC3D131
:10F59000FFF7E2FE15F054F867E715F051F85FE762
:10F5A0000C000300A84200200024F40008B502204B
:10F5B00003F032F841F28830FFF7E4FEFFF7CCFEAB
:10F5C0002DE9F04F082091B03C21544A15F048F83D
:10F5D00008B115F035F815F089FC08B115F030F8D0
:10F5E00010AC4F4B44F8243D204601F06DF908B1B2
:10F5F00015F026F84B484C4F4C4EFFF7C3FE002148
:10F600001C20089140F61C430E914FF0050B4FF063
:10F610000D0A4FF011094FF001084FF0040C41F2B0
:10F620005E0E434A07916F250A218DF822000F20B4
:10F630008DF823B08DF824A08DF825908DF82680C4
:10F640008DF827C0ADF82830ADF83630ADF82AE097
:10F650000B970C96ADF834508DF838100F9201F0DE
:10F66000D7F808B114F0ECFF10A9324D41F83C5D19
:10F67000314803F033F808B114F0E2FF10A92F4825
:10F6800041F8385D01F0AEFF08B114F0D9FF10A9C0
:10F690002B4841F8345D02F0F9FC08B114F0D0FFBA
:10F6A000284802F061FA08B114F0CAFF264B274837
:10F6B0000793214603F048FB08B114F0C1FF41F263
:10F6C000883003F0D7FA08B114F0BAFF204B1B4A78
:10F6D000049304A805230592069300F06DFA08B17F
:10F6E00014F0AEFF012002F097FF08B114F0A8FF5C
:10F6F000184D402415F04AF8F1EE103A23F09F031C
:10F70000E1EE103AF1EE103AC5F88441FFF738FE09
:10F710000028EFD014F094FFECE700BF0C4300206A
:10F720004C4E0400A086010060E3160020BF0200DA
:10F73000584E0400C84E0400EC460020DC46002071
:10F74000E4460020F446002011F40100FC460020AD
:10F7500049F4010000E100E06DDF704776DF70479B
:10F760007ADF70477CDF70477FDF70478FDF70473D
:10F770009EDF7047A9DF7047ADDF704769DF7047D4
:10F7800066DF704731DF70473DDF7047704700BF6D
:10F7900014F056BF14F054BFF0B5054685B04F4F76
:10F7A0000FF044FB28460FF09DFA3A6862B14C4EC8
:10F7B0000024336803EBC40301345B6813B12846AB
:10F7C00098473A689442F4D34648294610F09AF88C
:10F7D0004548294618F044F92B88132B66D00AD9DE
:10F7E000522B4AD0552B1AD0212B3ED028460FF051
:10F7F00023F905B0F0BD102B49D0112B20D0012BDF
:10F80000F4D13A4B00211888FFF7BAFF0028EDD059
:10F8100014F016FF28460FF00FF905B0F0BDA888C8
:10F820004FF48A71FFF7A8FF002849D13049EB88CF
:10F830002C48A1F8013010F0F7FB0028D6D0E7E7FC
:10F8400004AC002344F80C3D284B4FF6FF722046D1
:10F850001A8015F043FE08B114F0F2FE019B002B54
:10F8600031D0244B01221A70C0E700210A46A88833
:10F87000FFF77CFF0028B9D0CAE71C4B002118888D
:10F880000A460B46FFF776FF0028AFD0C0E704A872
:10F89000002300F80C3D184B144AA9881B681180FE
:10F8A000984728460FF0C8F805B0F0BD0F4B00226E
:10F8B000188885211346FFF757FF002896D0A7E741
:10F8C00014F0BEFEB2E70B490B4A0B70012312681D
:10F8D0008DF804302046904788E700BF1447002089
:10F8E000084700209C48002064480020D4410020A4
:10F8F000F44800200C4700201047002000B170475A
:10F9000000B585B004A8022300F80C3D054B1B6828
:10F91000984703200FF070F808B114F091FE05B07D
:10F920005DF804FB1047002008B5037803B108BD5B
:10F93000054B3B211888FFF711FF0028F7D0BDE8E1
:10F94000084014F07DBE00BFD441002010B504462D
:10F9500084B015F0CFFD204600F0BEFE2046023CEC
:10F960000FF0CAF8012C01D904B010BD04AC00237B
:10F9700044F80C3D204615F0B1FD08B114F060FECE
:10F98000019B002BF0D1064B1B78002BECD0054BD4
:10F99000012220461B688DF804209847E4E700BF49
:10F9A0000C4700201047002030B585B0052917D836
:10F9B000DFE801F024343F6D0318FA2B10D8544CC3
:10F9C00000932068114629301A4624F0BDFD2068B6
:10F9D000009B80F8233100F0C1FC08B114F030FE28
:10F9E00005B030BD032BFBD11178012974D04948F3
:10F9F000494910F019FB0028F2D0EFE70A2BEFD8A5
:10FA0000434C0093114620681A4624F09DFD009B4C
:10FA100022680021D1542068C372DCE7032BDFD1B8
:10FA20003B4C206811460C301A4624F08DFD2068AE
:10FA3000D1E7082BD4D1364C0093206811460F3003
:10FA40001A4624F081FD009B00211A4602A8FFF708
:10FA500079FC2368197CDA7B42EA0122ADF80820A0
:10FA6000997C5A7C42EA0122ADF80A20DA7C197DA1
:10FA700042EA0122ADF80C205A7D9B7D02A842EAA1
:10FA80000323ADF80E300FF089F900B31DE0112B00
:10FA9000A6D81F4C00932068114617301A4624F050
:10FAA00053FD009B2268022B82F8283011D91B4D90
:10FAB0001B492B8117324FF43E7305F10A006A602F
:10FAC0002B606961FFF748FEC8B114F0B9FD2068EA
:10FAD00081E700F079FEFAE71248B2F801100088D9
:10FAE00001930092FFF744FE9DE80C0000287FF48C
:10FAF0007EAF114608481A4624F026FD70E7EB7ADF
:10FB000028460233EB7200F015FE00F02FFEDEE710
:10FB1000944800209C480020F44800207C480020A5
:10FB200095F70100D4410020F0B589B006F020FC23
:10FB300008B109B0F0BD1A48202106F0CFFB0446F9
:10FB40000028F6D108AE174906F81C0D304624F0FF
:10FB500045FD30461449154D24F040FD2F1D15F884
:10FB6000012B1349ADF8004068468DF8024024F09F
:10FB700011FD3046694624F031FDBD42EFD13046DB
:10FB80001B2106F059FB0028D3D101200949162278
:10FB900006F082FB0028CCD106F0C0FBC9E700BF0D
:10FBA000D44E0400E0480020F44E04000447002036
:10FBB000F84E0400004F04002DE9F047AA4CAB4F6B
:10FBC000AB4DAC4EAC49AD4BAEB002462068089090
:10FBD00092E8110092682A6038604FF4A67208A873
:10FBE000346017F08BFC002840F03B812EAC0023E2
:10FBF00044F8783D204617F007FD002840F02E819C
:10FC000000210C221FA8FFF79DFB01274FF48A73E8
:10FC10001FA92320109A8DF87C70ADF87E30FFF775
:10FC2000ADFD002840F0178100210C221FA8FFF72E
:10FC300089FB0627012320201FA9109A8DF87C300C
:10FC40008DF87E30ADF88070FFF798FD002840F009
:10FC5000FF8000210C221FA8FFF774FB012710234F
:10FC600022201FA9109A8DF87C708DF87E30FFF746
:10FC700085FD002840F0E98000210C221FA8FFF735
:10FC800061FB0127022321201FA9109A8DF87C70A7
:10FC90008DF87E30FFF772FD002840F0D380002100
:10FCA0000C221FA8FFF74EFB022301201FA9109A68
:10FCB0008DF87C30FFF762FD002840F0C080002105
:10FCC0000C221FA8FFF73EFB012340201FA9109A1A
:10FCD0008DF87C30FFF752FD002840F0AD80002108
:10FCE0000C221FA8FFF72EFB40F6B833A1201FA956
:10FCF000109A1F93FFF742FD002840F09A800021E0
:10FD00000C221FA8FFF71EFB9DF87C30109A43F0D1
:10FD10000103A0201FA98DF87C30FFF72FFD0028DC
:10FD200040F08480204617F079FC00287BD15448AD
:10FD300017F03EFC10B12EB0BDE8F087514817F027
:10FD400041FC0028F7D10120FFF71CFD0028F2D16B
:10FD50000120FFF719FD03460028ECD14A49D1F8EC
:10FD6000882042F47002C1F88820BFF34F8FBFF3A0
:10FD70006F8F1FA88DF87C3013F09EFFDFF80CA169
:10FD8000DFF80C91062741F288389DF87C30032B70
:10FD90001FA87FD813F090FFDAF80020434600BF79
:10FDA00000BF00BF00BF00BF00BF00BF00BF4A458B
:10FDB0002FD000BF00BF00BF00BF00BF00BF00BF0B
:10FDC00000BF00BF00BF00BF00BF00BF00BF00BF3B
:10FDD00000BF00BF00BF00BF00BF00BF00BF00BF2B
:10FDE00000BF00BF00BF00BF00BF00BF00BF00BF1B
:10FDF00000BF00BF00BF00BF00BF00BF00BF00BF0B
:10FE000000BF00BF00BF00BF00BF00BF00BF00BFFA
:10FE100000BF013BC3D17B1E13F0FF07B5D10D20FE
:10FE20002EB0BDE8F08714F00BFC80E714F008FC5E
:10FE300078E714F005FC62E714F002FC4FE714F0D9
:10FE4000FFFB3CE714F0FCFB29E714F0F9FB13E798
:10FE500014F0F6FBFDE614F0F3FBE5E614F0F0FB1E
:10FE6000CEE614F0EDFBC1E6D04E040010470020B2
:10FE7000144700200847002018470020E9730300BA
:10FE800099F701004DF9010000ED00E0A8420020C3
:10FE90000024F400A548042113F020FF00287FF47B
:10FEA0004AAFA34FA348394600F084FA00287FF4F4
:10FEB00042AFD7F8008098F8243198F8252198F8B7
:10FEC0002611FF2B40F0A981FF2A40F0DA81FF299B
:10FED00002D088F82621012098F82830112B00F252
:10FEE000AD8198F82331FA2B00F2B781002840F059
:10FEF000BF819DF8403003F0F0036FF307134046D5
:10FF00008DF8403024F081FB414682B22046FFF755
:10FF100029FC002840F0C081002108221FA8FFF71B
:10FF200011FA3B68DFF80882197CDA7B42EA012289
:10FF3000ADF87C20997C5A7C42EA0122ADF87E2003
:10FF4000DA7C197D42EA0122ADF880205A7D9B7D42
:10FF50001FA842EA0323ADF88230FFF701FC07280F
:10FF600000F09D8100287FF4E6AE3A68724B73483A
:10FF7000D6F800801F921FA92E6820930FF0A4FDD1
:10FF800008B114F05DFB76B1DFF8D491002558F884
:10FF9000353001352BB199F80000984700287FF4DF
:10FFA000CAAEB542F3D100211FA80822FFF7CAF953
:10FFB000634B1F93634801231FA98DF880308DF890
:10FFC000813017F0BBFC08B114F03AFB5B4B584E84
:10FFD0001B788DF80E3000214FF480733C222046B0
:10FFE0000D46ADF80C304FF00108FFF7ABF93B6858
:10FFF00008950220062103AA0C950D958DF8425014
:020000022000DC
:1000000009950A950B950E950F958DF840008DF882
:100010004310ADF848808DF8238013929A890C9292
:100020009B7B0D9329463C221FA8FFF78BF93F4B82
:100030000095D878997893F801A093F800908DF8FE
:100040007C504FF0590C0DF1100E05AD8DF81000DD
:100050008DF8111008AA3C4B2895042720461FA9AB
:100060008DF812A08DF81390ADF814C0CDF81CE0F7
:10007000ADF818700EF0FEFB054600287FF45BAE6D
:1000800040460EF0F1FB29461C221FA8FFF75AF943
:10009000204629460822FFF755F933682B4F187C74
:1000A000DA7B2B4942EA0022ADF84020987C5A7C4A
:1000B00042EA0022ADF84220187DDA7C42EA0022B2
:1000C000ADF844205A7D9B7D1F9442EA03234FF4F0
:1000D000004E4FF4702203241FA8ADF84630ADF84F
:1000E0008A508DF88C50CDF880E021928DF88840B0
:1000F000249725910EF0BCFD00287FF41CAE20460D
:100100000EF07AFC00287FF416AE124800F08EFB49
:1001100000287FF410AEFFF707FD00287FF40BAE38
:100120000D4B0E491A6842F210731BE00447002081
:1001300094480020184F0400A9F901009C480020B1
:100140008DF7010064480020FDF8010029F9010045
:1001500091F70100E0480020A84200200024F400AC
:100160009848002000BF00BF00BF00BF00BF00BF15
:1001700000BF00BF8A422FD000BF00BF00BF00BF3A
:1001800000BF00BF00BF00BF00BF00BF00BF00BF77
:1001900000BF00BF00BF00BF00BF00BF00BF00BF67
:1001A00000BF00BF00BF00BF00BF00BF00BF00BF57
:1001B00000BF00BF00BF00BF00BF00BF00BF00BF47
:1001C00000BF00BF00BF00BF00BF00BF00BF00BF37
:1001D00000BF00BF00BF00BF013BC3D1336893F82D
:1001E0002820022A7FD9414C4149228117334FF4FC
:1001F0003E7204F10A0084E80C006161FFF7ACFA7A
:1002000000287FF498ADE37A20460233E37200F0D1
:1002100091FA00F0ABFA00208DE5FF2388F8243135
:1002200088F8253188F82631324B334801221A707C
:1002300000F094F850BBD7F800804DE608F11700A5
:100240000E222E4924F080F9D7F8008098F8233147
:100250000E22FA2B88F828200AD908F1290028490B
:10026000002224F071F9D7F80080002388F82331A8
:10027000404600F073F808B114F0E2F9D7F80080B6
:1002800037E688F8253188F82631CDE714F0D8F91B
:10029000D7F8008000201FE614F0D2F93CE6D8F829
:1002A000000000234FF0060C4FF0180E40210122F1
:1002B00080F80FC080F811E0417582750374837473
:1002C000C374037500F04AF800287FF434AD0D4B79
:1002D0001F931FA84FF0A0732093FFF741FA002847
:1002E0007FF429AD41E600F06FFA94E77C480020E6
:1002F00095F7010098480020184F04002F4F040084
:10030000414F0400060018000378012B11D00AD3D6
:10031000052B05D143682BB90D4B01221A7070478C
:10032000406878B97047436873B90A4B01221A7064
:100330007047426842B98289B2F5005FF2D1064A3D
:100340001370704714F07CB9002014F079B900BF25
:10035000F848002008490020F748002018B3F0B5FD
:10036000124C87B001464FF49572201D24F0ECF832
:100370004C274FF0420E01AA01234FF4005642F2DF
:10038000010503A90A480194C4F800E0ADF808701B
:10039000ADF80C60ADF80E500492ADF8143016F0C4
:1003A000A1FB07B0F0BD0E20704700BF0C49002034
:1003B000FC48002000286AD02DE9F047044686B0AA
:1003C0003E480D4616F06AF810B106B0BDE8F08759
:1003D00016F078F80028F8D1394E337823B914F0A4
:1003E000D5F93378002BFAD016F068FC0028ECD150
:1003F000344E337823B914F0C9F93378002BFAD08E
:100400000021082201A8FEF79DFF01AB4FF4005028
:1004100042F201012C4A16F095FC002839D00A2836
:10042000D3D12A4F2A4E07F1040821464FF4957282
:10043000404624F089F84FF042094FF0000C4FF08D
:100440004C0E4FF4005442F201024FF0010A01AB8E
:100450001D48019703A90493C7F8009086F800C0CF
:10046000ADF808E0ADF80C40ADF80E20ADF814A0E2
:1004700016F0F2F90028A8D13378C5F8008023B926
:1004800014F084F93378002BFAD000209DE70E2079
:1004900070470D4803A916F097F90028BFD10B4803
:1004A00004994FF4987224F04FF8074816F0B0F909
:1004B0000028B4D1074B2B6087E700BF0903020077
:1004C00008490020F8480020FC4800200C49002082
:1004D000F74800201049002045DF704746DF70478D
:1004E00047DF70476F4A2DE9F84F002353601370C0
:1004F0000746002841D0022807D06B4B5B6A0BB13E
:10050000082098476748BDE8F88F6849D1F810017E
:100510000128F7D1664CC1F810312378022B00F086
:10052000AB80032B00F0B780012B06D12520C1F84A
:100530000875C1F854050B602378042B40F0A8809F
:10054000594B5C4819794FF48074C0F8084500296C
:1005500000F0A5801868996899614FF47A7101FBE1
:1005600000F10126002003F10C05032459611E73DC
:100570001874587455601470C4E74F4C4D4BDFF835
:1005800028814A4D4D49C3F854554FF48072C3F841
:1005900050154FF0160BC3F8042508F11D01422633
:1005A000E01C06224FF0060A6770A77026704FF015
:1005B000020923F0C9FF01264FF0AA0EFE234FF0D7
:1005C000EE0C04EB0B00D8F82810B8F82C20277498
:1005D00084F80BA003274FF0100A84F811B084F8B8
:1005E00015C084F80EE084F812E0E373E37484F835
:1005F0000990A6722773677384F814A023F0A4FFF0
:1006000098F82C302E492A4ADFF8C080DFF8C0C0A5
:10061000DFF8C0E02B4803F1140B053384F801B078
:10062000C5F8FC6F40F2031B2374C5F8148540F233
:100630005B63C5F818C54FF096084FF08E0CC5F8EF
:1006400034B5C5F83835C5F83065C5F80072C5F859
:100650001075C5F84485C5F804A3C5F824C5C5F8C8
:100660001CE5C5F83C05C5F80445C1F800902E61AD
:1006700016700C48BDE8F88F134A1A2726264FF447
:10068000C875C1F80875C1F85465D060C2F8405506
:100690000133237036E70C4A50272726EFE7022361
:1006A00013702FE73C4A00206C4A002000100040E5
:1006B0009C4A002000F00140444A00204081004054
:1006C00000E100E0555555000080004006010200A1
:1006D0002500030200D6BE89042810B506D30528DC
:1006E00005D9072802D1114C6379C3B910BD0F4C4D
:1006F0002379002BFAD00023A1680D4A237304F15B
:100700000C00237463746161A261FFF7E9FE0028A5
:10071000ECD0636A002BE9D0BDE8104018470023F5
:100720006371FFF7DBFE0028F3D1DFE76C4A00209E
:1007300040420F0010B40C4B01681960024611468C
:1007400041F27C50986051F80A0FD8618C88897901
:1007500083F822101C845169596211899985526865
:100760009A625DF8044B70476C4A002070B5134CD8
:1007700063790BB9237903B170BD0123104823714C
:100780006371FFF7A9FE10B1636A03B198470B4D7F
:10079000A3680C4A63610121002305F10C00237357
:1007A00023746174A261FFF79BFE0028E4D06B6A9A
:1007B000002BE1D0BDE87040184700BF6C4A002014
:1007C000E504020040420F00014B00221A717047FD
:1007D0006C4A0020F8B51C4607460E46154616F032
:1007E0005DFB094B1B78834201D90F20F8BD3846C9
:1007F00031462A46234611F093FF0028F6D0034ADB
:10080000136801331360F8BDD6410020A04A0020D0
:10081000024A034B1070002018607047D641002038
:10082000A04A002012DF70476DDF704770B588B0B6
:1008300006460DF10300FFF7F5FF18B99DF80330E8
:1008400013B9022008B070BD01A8FFF7EDFF002822
:10085000F8D10390049005900690ADF81C00052493
:10086000062503E0013D601EEDB2C4B2062D03A8CB
:100870001AD023F0CAFE03AB1149184423F08AFEB4
:1008800003A823F0C2FE03AB184408AB2B440D4968
:1008900013F81C2C23F07EFE002CE3D1304603A974
:1008A00023F0ABFE2046CDE703A823F0AEFE03AB5A
:1008B00004499DF80A20184423F06CFED2E700BFDB
:1008C00004510400F84E04002DE9F047B2B004468C
:1008D0007F4902A8C022012523F036FEA84602ABBC
:1008E00000264FF0A04C997893F801A01878DA7898
:1008F00093F804905F79890041EA4A01014341EA93
:1009000002221E2E06F5E07E42EA094210D0012F97
:100910004CF82E2011D005D3022F07D0062032B07C
:10092000BDE8F08708FA06F2CCF80C25202D09D096
:100930000135EDB201360633D5E7B740202DCCF8AE
:100940000875F5D14FF0A04203234FF08040614974
:10095000C2F87837C2F808050A685F4941F288335F
:1009600000BF00BF00BF00BF00BF00BF00BF00BF8F
:100970008A422FD000BF00BF00BF00BF00BF00BF32
:1009800000BF00BF00BF00BF00BF00BF00BF00BF6F
:1009900000BF00BF00BF00BF00BF00BF00BF00BF5F
:1009A00000BF00BF00BF00BF00BF00BF00BF00BF4F
:1009B00000BF00BF00BF00BF00BF00BF00BF00BF3F
:1009C00000BF00BF00BF00BF00BF00BF00BF00BF2F
:1009D00000BF00BF013BC3D10121204605F0C0FB91
:1009E00000289CD10146602202A8FEF7ABFC9DF8CE
:1009F0000D409DF813709DF819109DF81F309DF85B
:100A00003D209DF843609DF84950A4F10104B4FADB
:100A100084F4640944F00200012F08BF044644F046
:100A2000040001290CBF0146214641F00800012BBA
:100A300008BF014641F0E00141F48073012A14BF70
:100A40000A461A4642F40073012E18BF134643F4B7
:100A50008062012D14BF1846104640F46040012307
:100A600002228DF820308DF82B308DF831308DF842
:100A700037308DF84A308DF84C308DF850308DF885
:100A800052308DF85B308DF861308DF867308DF81D
:100A900025208DF84F208DF8552005F0E7FA002825
:100AA0007FF43DAF02AC05462079E6782178627884
:100AB000A37801900096284605F02CFA00287FF4D0
:100AC0002EAF0135102D04F10604EDD127E700BF4C
:100AD00044500400A84200200024F4002DE9F04115
:100AE000B2B002AC602220460021FEF72BFC0123AD
:100AF000022225468DF820308DF82B308DF83130CC
:100B00008DF837308DF84A308DF84C308DF85030F4
:100B10008DF852308DF85B308DF861308DF867308C
:100B20008DF825208DF84F208DF855200026287946
:100B3000EF7829786A78AB7801900097304605F015
:100B4000E9F90136063500283ED020462349C02267
:100B500023F0FAFC4FF0A04620230127013B03EBD2
:100B6000430204EB420514F81200A97895F80180BD
:100B7000EA7895F804C06D79890041EA4801DBB252
:100B8000014341EA02221E2B03F5E07E42EA0C42B9
:100B9000E4D0012D46F82E2019D00ED3022D10D00E
:100BA0004FF0A04303214FF080420020C3F8781794
:100BB000C3F80C2532B0BDE8F08107FA03F2C6F89D
:100BC0000C25002BCAD1EBE7102EB0D1BDE79D401C
:100BD000C6F80855002BC1D1E2E700BF445004001D
:100BE00010B5224C2378022B82B005D0002323704D
:100BF00002F0B0FD02B010BD1D4B1E4A1B78002153
:100C00001170ABB11C4814F0A7FA0028F2D10DF115
:100C1000060002F0D3FA0028ECD1184BBDF80620EC
:100C20001B681B7A032B1ED8DFE803F018130F078D
:100C300003F0EEFE0028E5D0DCE7114B1868C28017
:100C400000F0CEFD0028D5D1D0E70D4B186882808A
:100C5000F6E70B4B19684A801868F1E7084B1968EA
:100C60000A801868ECE70820C4E700BFF04A0020BB
:100C7000F14A00209C4B0020144B0020EC4A00203D
:100C8000A44A002000B50C4B1B6883B0597A9A7AAD
:100C90008DF80410DB7A8DF8052001A900208DF86D
:100CA000063004F053FE06F073FF08B113F0C8FCE1
:100CB00003B05DF804FB00BFEC4A002008B5054B0B
:100CC00001221A7003F068FF00B908BDBDE80840B2
:100CD00013F0B6BC344B002008B5054B01221A7046
:100CE00003F05AFF00B908BDBDE8084013F0A8BCE6
:100CF000A84A002008B503F06DFB00B908BDBDE8A7
:100D0000084013F09DBC00BF70B100B583B00288ED
:100D100043880648ADF8042001A9ADF806300EF06E
:100D200091FD03B05DF804FB704700BFAC4A0020A2
:100D300030B5044683B0002004F090FC7CB12188DB
:100D40006588A288E388ADF800100648ADF8025027
:100D50006946ADF80420ADF806300EF09DFD03B0F5
:100D600030BD00BFAC4A002010B5184C2378012BD1
:100D700000D010BD164B1B681B7A032B21D8DFE86F
:100D800003F011150D02134B1B68D88890B902238C
:100D900023701148BDE8104014F0DEB90D4B1B68FC
:100DA0009888F3E70B4B1B681888EFE7094B1B6823
:100DB0005888EBE702F0A6FA0028E8D013F040FCD0
:100DC000E5E7082013F03CFCE1E700BFF04A002013
:100DD000EC4A0020A44A0020144B002000B5037800
:100DE00083B03BB1012B02D1002013F029FC03B0EA
:100DF0005DF804FB4378012BF9D103F0C3FAFDEE53
:100E0000C07A9FED0A7ACDED007AF8EEE77A69466E
:100E100030EE670A064820EE070AFCEEC07A17EEAD
:100E2000903A8DF804300EF0B9FCE0E70000C842BB
:100E3000AC4A002010B52DED028B84B068BB03F0E6
:100E40005DFEB0EE408A03F003FEBDEEC87ADFED32
:100E5000336A8DED017A9DF80430314C8DF80C30F9
:100E60005AB207EE902AF8EEE77A22788DF80B0056
:100E700078EE677A67EEA67AFCEEE77A17EE903A9C
:100E80008DF80D30E2B9274C237813BB264C23781C
:100E900053B904B0BDEC028B10BD002013F0D0FBA1
:100EA00004B0BDEC028B10BD20480DF10B010EF01B
:100EB0009FFCD0B90023237004B0BDEC028B10BDA1
:100EC0001B4B1B78A3B900232370164C2378002BEF
:100ED000DCD0164803A90EF037FCE0B900232370DC
:100EE000114C2378002BD4D0DEE713F0A9FBE1E707
:100EF000DFED107A28EE278A00EB8000FDEEC87A3D
:100F0000400080B217EE901A02F0B2F80028DAD052
:100F100013F096FBD7E713F093FBDFE70000C8421E
:100F2000784B0020A84A0020344B0020AC4A002017
:100F30009C4B002000007A4470B57C4E82B00023A8
:100F400004467B48337014F007F97A4814F004F92A
:100F500008B903F0FBF9784D784800232B7014F0A2
:100F6000FBF828B9764B774A1B781070002B59D0C4
:100F7000754814F0F1F800285BD1002004F06EFBF6
:100F800006F07AFE08B113F05BFB238823B16F4BA8
:100F900093F83630002B59D1638823B16B4B93F80B
:100FA0003730002B5DD1A38823B1684B93F83830DC
:100FB000002B41D1E3881BB1644B93F83A3013B94D
:100FC000002002B070BD624C2368597A9A7A8DF87D
:100FD0000410DB7A8DF8052001A900208DF8063079
:100FE00004F0B4FC06F0F2FD00285FD106F0D0FD5D
:100FF000002858D12368DB884FF400424FF4FA7080
:101000000021E3FB02014FF47A72002322F07CFFFF
:10101000002201464C4814F045F80028D0D013F0C7
:101020000FFBCDE703F0F4FC474814F095F80028D7
:10103000A3D013F005FBA0E7424A012313702B70E5
:1010400003F0A8FCA8B313F0FBFAB3E73D4A012371
:101050001370337003F09EFC002847D013F0F0FAB1
:101060009AE703F01DF900285CD103F0B3F908B149
:1010700013F0E6FA364B1B685B884FF400424FF4DE
:10108000FA700021E3FB02014FF47A72002322F090
:101090003BFF00220146274814F004F8002882D0C4
:1010A00013F0CEFA7FE713F0CBFAA3E713F0C8FAF8
:1010B0009CE703F071FD05460028C4D1244B1B6852
:1010C0009B884FF400424FF4FA700021E3FB0201C9
:1010D0004FF47A72002322F017FF2A460146174880
:1010E00013F0E0FF00283FF465AFACE703F054FDD8
:1010F00006460028B2D1164B1B681B884FF40042ED
:101100004FF4FA700021E3FB02014FF47A720023DE
:1011100022F0FAFE32460146054813F0C3FF0028CC
:101120009CD139E713F08CFA9FE700BFA84A002052
:10113000384B0020584B0020344B0020F44A00204C
:101140009C4B0020F14A00207C4B0020AC4A002040
:10115000EC4A0020F0B591B0002405460026002797
:1011600038483949394A3A4B8DF808408DF80940DA
:1011700004948DF814408DF80740ADF80C40ADF89C
:101180000E40CDE9066700F055FB002845D1002D43
:1011900048D12D4C22681388643B9BB24EF6FC115B
:1011A0008B4216D85388323B9BB24EF62E20834298
:1011B0000FD89388643B9BB28B420AD8D388C83B34
:1011C0009BB24EF698118B4203D8137A013B022B47
:1011D00003D91C4800F0D8FA08BB00211C2209A83A
:1011E000FEF7B0F822681B4B0E9206AC03AA09A9C1
:1011F00019480D9402AF04AE0DF107050F9309973E
:101200000A960B950C920DF0B7FF0F4B044620B9D0
:10121000186810B1FFF790FE204611B0F0BD13F032
:101220000FFADAE7074800F0AFFA38B9074800F0DC
:10123000D7FA0028ADD013F003FAAAE713F000FAAA
:10124000F4E700BF08510400EC4A002018510400E4
:10125000A44A00205D120200AC4A002030B50446CA
:1012600083B0154605291AD8DFE801F0032F557F12
:101270009C1B90F83630002B00F0F3809A499B4A73
:1012800001230B70137003F085FB30B903F084FC6D
:101290000446002800F00581204613F0D1F903B080
:1012A00030BD0C2B02D0002013F0CAF9284600F004
:1012B0006BFA002840F0EC80002D00F00A812846EF
:1012C000FFF73AFE0028EAD0E7E790F83730002B26
:1012D00000F09B8002F0E4FF002840F0FF8003F064
:1012E00079F8002840F0DA80814B1B685B884FF466
:1012F00000424FF4FA700021E3FB02014FF47A72CE
:10130000002322F001FE002201467A4813F0CAFEB3
:101310000028C4D0C1E790F83830002B00F081805D
:101320007549724A01230B70137003F033FB0028D8
:10133000B3D103F031FC04460028ADD16C4B1B68DF
:101340009B884FF400424FF4FA700021E3FB020146
:101350004FF47A72002322F0D7FD224601466748F7
:1013600013F0A0FE00289AD097E790F83930002BB0
:1013700071D05F4B1B681B7A032B96BF604A02201B
:10138000D05C02F063F80246002886D15D4B5E48CF
:1013900001244FF061711C7013F084FE00283FF4AB
:1013A0007EAF7AE790F83A30002B64D0504C236837
:1013B000597A9A7A8DF80410DB7A8DF8052001A904
:1013C00000208DF8063004F0C1FA06F0FFFB00287B
:1013D00040F0818006F0DCFB00285CD12368DB88CC
:1013E0004FF400424FF4FA700021E3FB02014FF486
:1013F0007A72002322F088FD00220146434813F050
:1014000051FE00283FF44BAF47E73A4813F0A4FEE3
:1014100000287FF442AF02F099FF00283FF43FAF6D
:101420003BE7354A94F836403448137013F094FE85
:1014300000287FF432AF002C7FF431AF344B2B4ABD
:101440001B781470002B7FF42AAF03F0E1FA002818
:101450003FF425AF21E7FFF7C3FB00283FF41FAFA0
:101460001BE7214A94F838402A48137013F074FEA1
:101470000028E0D011E7254813F06EFE88BB00205D
:1014800004F0ECF806F0F8FB00283FF408AF04E79E
:1014900013F0D6F810E713F0D3F89FE713F0D0F865
:1014A00022E7134B1B681B884FF400424FF4FA707D
:1014B0000021E3FB02014FF47A72002322F024FDA5
:1014C00022460146134813F0EDFD00287FF4E5AEF7
:1014D000E5E60E20E1E613F0B3F87BE713F0B0F891
:1014E000FDE613F0ADF8CAE7A84A0020F14A002053
:1014F000EC4A0020584B0020344B0020F44A0020D6
:1015000070510400F04A0020144B00207C4B002056
:101510009C4B0020384B002008B5204B204800226F
:101520001A7013F019FE08B113F08AF81D4813F071
:1015300013FE70B313F084F81B4B1C4800221A7082
:1015400013F00AFED8B91A4B1A4A1B78107093B1DF
:10155000194813F001FEC8B9002004F07FF806F026
:101560008BFB08B113F06CF8FFF73AFB08B113F0EE
:1015700067F8002008BD03F04BFA0028E8D013F00C
:101580005FF80D4813F0E8FD0028E5D013F058F897
:10159000E2E702F0DBFE0028CED0CBE7A84A00202D
:1015A000384B0020584B0020344B0020F44A0020D8
:1015B0009C4B0020F14A00207C4B002010B50446D3
:1015C000014607480DF0C4FC2388112B00D010BD44
:1015D000FFF7A2FF0028FAD0BDE8104013F030B8A2
:1015E000AC4A002000285DD000295BD070B53B4A92
:1015F0003B4B426086B003600B683A4A02930C464C
:101600005C2639498DF8006017250123684601954D
:10161000039104928DF8143002F006FE002859D18F
:101620002168324A324B02915F25182168468DF8B5
:10163000005001910392049303F05EF9002846D113
:1016400022682C492C4B009268465A2201918DF851
:101650000820039302F04EF908B112F0F1FF22685E
:101660002649274B00926846382201918DF80820C0
:10167000039306F041FA08B112F0E2FF2148224A32
:10168000012113F0FDFCF8B92048214A012113F093
:10169000F7FCB0B91F48204A012113F0F1FC18B142
:1016A00006B070BD0E2070471C481D4A012113F082
:1016B000E7FC0028F4D11B4A1B48012113F0E0FC91
:1016C000EEE712F0BDFFE5E712F0BAFFDCE712F03B
:1016D000B7FFB5E712F0B4FFA2E700BFBD150200E7
:1016E00055110200DD0D02003451040024510400A4
:1016F000350E020044510400090D02005851040047
:10170000310D020068510400D90C0200145104008C
:10171000F50C020020510400BD0C020054510400DD
:10172000850C0200690D02006C510400037893B12E
:10173000012B0DD14268CAB9828941F201018A4266
:1017400011D041F203018A4204D10B4A1370704751
:10175000406870B97047436843B90849084A012393
:101760000B7013707047074A13707047002012F017
:1017700067BF12F065BF00BFC94B0020B84B002007
:10178000C84B00209D4B002018B3F0B5124C87B019
:1017900001460427201D0C2222F0D6FE41F201064C
:1017A0004FF0420E0DEB0702012341F2020503A99F
:1017B0000A480194C4F800E0ADF80870ADF80C6078
:1017C000ADF80E500492ADF8143015F08BF907B057
:1017D000F0BD0E20704700BFCC4B0020BC4B00205A
:1017E00010B3F0B5114C87B001460822201D22F03D
:1017F000ABFE03274FF0420E01AA012341F203067C
:1018000041F2040503A90A480194C4F800E0ADF8C8
:101810000870ADF80C60ADF80E500492ADF81430BD
:1018200015F060F907B0F0BD0E207047AC4B0020FA
:10183000A04B002070B16AB12DE9F04F044687B08B
:101840006D481E4615460F4614F028FE20B107B01D
:10185000BDE8F08F0E20704714F034FE0028F6D15A
:10186000DFF8B481DFF8B49101E012F08FFF98F84F
:101870000030002BF9D099F80030002BF5D0002172
:10188000082201A8FDF75EFD01AB41F2010041F223
:1018900002015A4A15F056FA002800F082800A2800
:1018A000D5D10DF10C08DFF868A1DFF874910AF1C9
:1018B000040B21460C22584622F046FE422000210D
:1018C0004FF0040E41F2010441F202024FF0010C0C
:1018D0000DEB0E03CAF8000089F800104748CDF858
:1018E00004A041460493ADF808E0ADF80C40ADF813
:1018F0000E20ADF814C014F0AFFF0028A7D199F85E
:101900000030C7F800B02BB912F040FF99F8003052
:10191000002BF9D00021082201A8FDF713FD41F2A8
:10192000030041F20401364A01AB15F00BFA00281E
:1019300042D00A288BD1334F334C07F10409294692
:101940000822484622F000FE41F2030541464FF0CE
:10195000000C4FF042084FF0030E41F204024FF02A
:10196000010A01AB264801970493C7F8008084F868
:1019700000C0ADF808E0ADF80C50ADF80E20ADF8A1
:1019800014A014F069FF00287FF461AF2378C6F833
:10199000009023B912F0FAFE2378002BFAD0002031
:1019A00055E70DF10C084146144814F00DFFB0B195
:1019B0000A287FF44CAF76E71148414614F004FF43
:1019C0000028B6D10F4804990C2222F0BDFD0C4826
:1019D00014F01EFF0028ACD10C4B336037E70C48E5
:1019E0000499102222F0B0FD044814F011FF0028E1
:1019F000DED1084B3B608DE72D170200BC4B002069
:101A0000A04B0020AC4B0020C94B0020B04B002065
:101A1000CC4B0020D04B0020B84B0020C84B0020FE
:101A20009D4B002008B50146B0F88420024810F014
:101A300041F8002008BD00BFDC4B002010B584B089
:101A400002A800210822FDF77DFC04AB012203F867
:101A50000C2D02A9044C054802938DF8052003942F
:101A60000FF0A2FE04B010BD951A0200DC4B00205E
:101A7000012802D008D3022803D10146044810F0FF
:101A800049B8002012F0DCBD0148002110F042B836
:101A9000DC4B002000B5012983B013D01FD30229ED
:101AA0001AD12549097802293AD0012928D00329D9
:101AB00001D1012B2ED02148112103B05DF804EB98
:101AC00010F028B8022B04D00020019212F0B8FDCB
:101AD000019A194B12781A7003B05DF804FB90F864
:101AE000263043B107F0E0FC0028F5D003B05DF8E4
:101AF00004EB12F0A5BD07F0F1FC0028ECD0F5E7EF
:101B0000052BD8D110885188127906F043FB0028A4
:101B1000E2D0D0E7107806F0C5FA0028DCD0CAE79A
:101B20001046194606F0DAF9042802D00028D3D06E
:101B3000DCE702481021C0E7D7410020DC4B002041
:101B400010B50446014607480FF084FD2388112B89
:101B500000D010BD07F0C2FC0028FAD0BDE810404C
:101B600012F06EBDDC4B002098B100B583B0034687
:101B700002A80D4A40F8042D0C490D4A59601A601C
:101B800006F09AFB38B90B4807F0C4FC03B05DF8C7
:101B900004FB0E20704712F053FD064807F0BAFC14
:101BA00003B05DF804FB00BF711A0200411B020084
:101BB0003D1A0200251A02002DE9F043037887B090
:101BC0000C46082B17D8DFE813F019009E00B2006E
:101BD000C300F3000201140126010900082A02D003
:101BE000002012F02DFD94E80C00B248019201A9EA
:101BF00002930FF0B5FB07B0BDE8F083242A02D0B2
:101C0000002012F01DFD266833141E2B00F31F81E7
:101C10002033C0F24C81D4F804C04FEA2C431E2B71
:101C200000F310812033C0F23E81D4F808E04FEA7F
:101C30002E431E2B00F301812033C0F23081E76870
:101C400040F2FE323B14934200F3F48013F5806FB0
:101C5000C0F22181226940F2FE3113148B4200F35D
:101C6000FD8013F5806FC0F21281636940F2FE308F
:101C70001914814200F3EF8011F5806FC0F20381E7
:101C8000A16940F2FE750814A84200F3EA8010F53D
:101C9000006FC0F2F480E56940F2FE7828144045F8
:101CA00000F3C58010F5006FC0F2E580206A40F2B5
:101CB000FE794FEA2048C84540F3D6807E4820622E
:101CC000091349420413B6114FEAAC1C4FEAAE1E89
:101CD000FF12D212DB122D13ADF812107548ADF8B9
:101CE000046001A9ADF806C0ADF808E0ADF80A70CF
:101CF000ADF80C20ADF80E30ADF81050ADF8144032
:101D00000FF05CFB77E7102A02D0002012F098FC5D
:101D100094E82200A268E36801916648029501A94F
:101D2000039204930FF0F0FA07B0BDE8F0830C2A99
:101D300002D0002012F084FC94E80E005D4801916E
:101D400001A9029203930FF065FB07B0BDE8F08391
:101D5000242A02D0002012F073FCB4F90210B4F966
:101D60000680B4F90AC0B4F90EE0B4F91270B4F9FF
:101D70001660B4F91A50B4F91E20B4F92230ADF847
:101D800004104C48ADF8068001A9ADF808C0ADF8C4
:101D90000AE0ADF80C70ADF80E60ADF81050ADF87B
:101DA0001220ADF814300FF061FB07B0BDE8F083EE
:101DB000042A02D0002012F043FC06A9236841F84F
:101DC000143D3C480FF07EFB07B0BDE8F0830C2AC1
:101DD00002D0002012F034FC21686268A3680191EF
:101DE0003448029201A903930FF09AFB07B0BDE8B3
:101DF000F083022A02D0002012F022FC22786378BD
:101E00002C488DF8042001A98DF805300FF024FA34
:101E100007B0BDE8F083012A02D0002012F010FCC8
:101E2000214624480FF044FA07B0BDE8F083224D64
:101E3000E5613BE7214FE7600CE74FF4F813A3603F
:101E40009E46FCE64FF4F81363609C46EDE64FF4C3
:101E5000F8162660DFE6194B636111E7174A226125
:101E600003E71549A16116E718F5006FBCBF4FF0F5
:101E70007840206224E74FF07845E56116E74FF09F
:101E80007841A16107E74FF07C436361F8E64FF0CA
:101E90007C422261E9E64FF07C47E760DAE6084BD6
:101EA000A3609E46CBE6064B63609C46BDE6044EAF
:101EB0002660B0E6084C00200000FF070000FF038A
:101EC0000000E0FFF0B587B0092910D8DFE801F085
:101ED000114374676D4F555B610590F85E3080204B
:101EE000002B3ED106F0DAFE08B112F0A9FB07B0D4
:101EF000F0BD092B04D00020019212F0A1FB019A41
:101F00000192104600F004F9019A00285BD1002AE2
:101F10005DD09078D478117957799379D6791578FE
:101F200092F801E0127A8DF8142040EA042445EA80
:101F30000E2541EA072243EA062303A8ADF80C5018
:101F4000ADF80E40ADF81020ADF8123006F0DAFE14
:101F50000028CCD0C9E790F856304FF48070002BA1
:101F6000C0D006F027FE0028BFD107B0F0BD90F822
:101F70005A300720002BB5D0F3E790F85B301020E3
:101F8000002BAFD0EDE790F85C302020002BA9D0DB
:101F9000E7E790F85D304020002BA3D0E1E790F810
:101FA00058300820002B9DD0DBE790F859304FF4D3
:101FB0008060002B96D0D4E790F857304FF4007033
:101FC000002B8FD0CDE712F03BFB019A9FE70E204C
:101FD0008BE700BF10B50446014608480EF0B6FA7C
:101FE0002388112B00D010BD40F6FF7006F056FE7E
:101FF0000028F8D0BDE8104012F022BB084C0020A9
:1020000010B51D4984B004461C4800F0ADF828BB4B
:102010004CBB194C23681BB31A88ADF804205A88AE
:10202000ADF806209A88ADF80820DA88ADF80A20C5
:102030001B7A8DF80C3001A806F064FE08B112F08E
:10204000FFFA0021082201A8FDF77CF922680C4B59
:102050000C48019201A902930EF01AFC04B010BDC5
:102060000E2004B010BD054800F052F80028D0D072
:1020700012F0E6FACDE700BF6C4C0020845104005A
:10208000C51E0200084C002006F0E8BEA0B199B1C0
:1020900030B50A4A0A4B426085B003600B68094DAF
:1020A000094C0A480093694602AA029301950394D9
:1020B00006F0D6FE05B030BD0E207047D51F0200D9
:1020C000012002007451040090510400B91B020069
:1020D00003786BB1012B08D142687AB98289B2F5D5
:1020E000405F04D1084A13707047406848B9704790
:1020F00043681BB9054B01221A707047002012F08B
:102100009FBA12F09DBA00BF704C0020804C002096
:1021100018B3F0B5124C87B001460427201D0922E0
:1021200022F012FA4FF440564FF0420E0DEB070228
:10213000012343F2010503A90A480194C4F800E011
:10214000ADF80870ADF80C60ADF80E500492ADF823
:10215000143014F0C7FC07B0F0BD0E20704700BF6C
:10216000844C0020744C002000285ED02DE9F047FC
:10217000044686B038480E4614F090F910B106B007
:10218000BDE8F08714F09EF90028F8D1334D2B7884
:1021900023B912F0FBFA2B78002BFAD00021082289
:1021A00001A8FDF7CFF801AB4FF4405043F2010115
:1021B0002B4A14F0C7FD0DF10C08002837D0294F29
:1021C000DFF8A890284D21460922484622F0BCF9A4
:1021D0004FF0040E41464FF0420C4FF000084FF410
:1021E000405443F201024FF0010A0DEB0E031C486C
:1021F0000197049385F80080C7F800C0ADF808E0A7
:10220000ADF80C40ADF80E20ADF814A014F024FB8E
:102210000028B4D12B78C6F8009023B912F0B6FA92
:102220002B78002BFAD00020A9E70E2070474146FA
:102230000B480C4F14F0C8FA0028C1D10499384655
:10224000102222F081F9064814F0E2FA0028B7D1F2
:102250000437376093E700BFD1200200804C002094
:10226000744C0020844C0020704C0020884C0020CE
:102270000B78F3B14FF0A0434FF48022C3F8082548
:102280004B78FBB14FF0A0434FF40022C3F8082570
:102290008B7803B34FF0A0434FF48012C3F80825A6
:1022A000CB780BBB4FF0A0434FF40012C3F80C25C2
:1022B00070474FF0A0434FF48022C3F80C254B78B1
:1022C000002BDFD14FF0A0434FF40022C3F80C25C0
:1022D0008B78002BDED14FF0A0434FF48012C3F86F
:1022E0000C25CB78002BDDD04FF0A0434FF400122B
:1022F000C3F80825704700BF10B5134984B00446E1
:10230000124800F0A3FAA0B9ACB90F4B104C1B68EF
:10231000104A019310480294002369468DF800305A
:102320008DF801308DF802308DF8033003920DF0F6
:102330007FFF04B010BD054800F05EFA0028E4D02D
:1023400012F07EF9E1E700BF944C0020B051040088
:102350008923020071220200E44C00200B2800D0E7
:10236000704708B50748828B4FF6FF739A4208D032
:102370000EF0B6F830F0080303D0BDE8084012F0C4
:102380005FB908BDE44C0020F0B5434C23688B4294
:102390008BB003D0084600F02FFA236818681A792A
:1023A000019001201D785F789E788DF8082003F059
:1023B00055F9034668B92268127842B1012D0ED052
:1023C000022D44D0032D1ED0012012F039F90BB09C
:1023D000F0BD0628FBD0184612F032F9F7E79DF859
:1023E000073007B986B3012003A98DF80C708DF86A
:1023F0000D608DF80E3003F0A9FA0628E7D000280A
:10240000EAD10BB0F0BD07EE906A9FED247A0390FD
:10241000F8EEE77A0AA967EE877A01F81C7DFCEEF0
:10242000E77A232617EE902A4FF4FA654FF4FA74F0
:1024300001200593069307938DF8142004960895C0
:10244000099403F00BFBD8E7002BCCD1BFE707EED4
:10245000906A9FED127A0390F8EEE77A0AA967EE88
:10246000877ABDF807E001F81C7DFCEEE77A2326A9
:1024700017EE902A4FF4FA654FF4FA740120059391
:1024800007938DF81420CDF818E004960895099468
:1024900003F0E4FAB1E700BF944C0020333323404B
:1024A00000284FD0F0B504468BB0584821460DF0B7
:1024B000E3FD2388102B26D0112B22D1012003F01D
:1024C000CDF8034600283ED1514A12681278C2B1B5
:1024D0000AA904220390232701F81C2D4FF4FA6661
:1024E0004FF4FA75332440F6AC520120059307935C
:1024F0000497089609958DF81440069203F0AEFAF9
:10250000E0B90BB0F0BD424C2368F3B118681A79FA
:10251000019001201D785F789E788DF8082003F0E7
:102520009DF8034678B922681278002AE9D0012D77
:102530000ED0022D42D0032D1DD0012012F080F8C4
:102540000BB0F0BD70471846F8E793E80300FFDED4
:102550009DF8073017B90EB9002BD2D0012003A97E
:102560008DF80C708DF80D608DF80E3003F0EEF9DB
:102570000028C6D0E2E707EE906A9FED267A039026
:10258000F8EEE77A0AA967EE877A01F81C7DFCEE7F
:10259000E77A232617EE902A4FF4FA654FF4FA747F
:1025A00001200593069307938DF81420049608954F
:1025B000099403F053FA0028A3D0BFE707EE906A0E
:1025C0009FED147A0390F8EEE77A0AA967EE877A0E
:1025D000BDF807E001F81C7DFCEEE77A232617EE34
:1025E000902A4FF4FA654FF4FA740120059307938B
:1025F0008DF81420CDF818E004960895099403F09E
:102600002DFA00283FF47DAF98E700BFE44C00208E
:10261000944C002033332340F0B589B030B3012807
:1026200004463FD0012003F019F8034618BB2A4A9C
:1026300012681278BAB108A90120019301F81C0DA3
:1026400023274FF4FA664FF4FA75332440F26B32C5
:10265000039305930297069607958DF80C40049214
:1026600003F0FCF940B9002009B0F0BD012002F0F0
:10267000F5FF034610B1184609B0F0BD164A1268BE
:102680001278002AEFD008A902220190232701F82E
:102690001C2D4FF4FA664FF4FA75332440F6AC5211
:1026A0000120D5E702F0DAFF03460028E3D10A4A09
:1026B00012681278002AD6D008A904220190232794
:1026C00001F81C2D20464FF4FA664FF4FA753324B6
:1026D00040F6AC52BCE700BF944C002070B5304CC3
:1026E000304B3E2222700A68626084B0A3600028EA
:1026F0004BD02D4A2D4B426003600FF0ADFA0028FD
:102700003ED02B48012140F2666211F02BFF0028D9
:102710003ED011F095FF274D02940422022410238D
:102720006846002100958DF804408DF805208DF84D
:102730000C3003F0D7FA80BB002002F08FFF01209D
:1027400002F08CFF4FF0A04303224FF480264FF499
:1027500000254FF480144FF400110020C3F84827DF
:10276000C3F84C27C3F85027C3F85427C3F80C65A7
:10277000C3F80C55C3F80C45C3F80C1504B070BD74
:102780000FF01CFA0028BCD0C3E70E2004B070BDC7
:1027900011F040FF0028BED0BBE711F051FFCBE79E
:1027A000B84C0020A0510400A1240200F92202002C
:1027B000C8510400B851040003786BB1012B08D153
:1027C00042687AB98289B2F5804F04D1084A137001
:1027D0007047406848B9704743681BB9054B0122F0
:1027E0001A707047002011F02BBF11F029BF00BFF5
:1027F000244D0020344D002010B3F0B5114C87B0AB
:1028000001460522201D21F09FFE03274FF0420EB6
:1028100001AA01234FF4804644F2010503A90A48A6
:102820000194C4F800E0ADF80870ADF80C60ADF8A4
:102830000E500492ADF8143014F054F907B0F0BD06
:102840000E207047384D0020284D002000285DD014
:102850002DE9F047054686B037480C4613F01EFEBA
:1028600010B106B0BDE8F08713F02CFE0028F8D1B7
:10287000324E337823B911F089FF3378002BFAD028
:102880000021082201A8FCF75DFD01AB4FF4804058
:1028900044F201012A4A14F055FA002838D00A28D7
:1028A000DFD1284F284E07F104082946052240466B
:1028B00021F04AFE4FF042094FF0000C4FF0030E9A
:1028C0004FF4804544F201024FF0010A01AB1C486D
:1028D000019703A90493C7F8009086F800C0ADF8EB
:1028E00008E0ADF80C50ADF80E20ADF814A013F0D0
:1028F000B3FF0028B5D13378C4F8008023B911F0B4
:1029000045FF3378002BFAD00020AAE70E2070474D
:102910000B4803A913F058FF0028C0D109480499B7
:102920000C2221F011FE064813F072FF0028B6D1E8
:10293000064A226095E700BFB9270200344D002007
:10294000284D0020384D0020244D00203C4D002013
:1029500000B583B00378084A8DF800300023126870
:102960008DF80530ADF802308DF804306846904798
:1029700003B05DF804FB00BF484D0020704700BF66
:1029800030B51C4B1C49186885B00090684610F0A3
:10299000C9FF60B1082804D011F052FE11F01CF9F3
:1029A00008B905B030BD11F04BFE05B030BD134A7B
:1029B0008DF80400D5788DF805000522012401A9C1
:1029C0008DF807008DF809008DF80C008DF80B507C
:1029D0008DF80A408DF806208DF8082011F070F867
:1029E0000028D7D12146064811F094F80028D1D10B
:1029F000D4E700BFD0510400992B02004C4D0020B9
:102A00006C4D002000B54FF0A041114AD1F81035AF
:102A10001079C340D80783B015D5D1F81035527955
:102A2000D340DB074CBF042303238DF807300DF19F
:102A300007000121074A11F041FE08B111F000FE24
:102A400003B05DF804FB05238DF80730EFE700BF06
:102A50004C4D00205129020010B582B00A460146B3
:102A60000DF1020021F070FD1F4ABDF802301089FF
:102A7000012198428DF8051007D25189994203D857
:102A800002218DF8001002E000218DF80010D08A9C
:102A9000117E154C1B1A93FBF1F31BB2002B21DBAB
:102AA000A18A99420EDD1148D1690278C95C8DF87E
:102AB000041052B90E4B19700E4B68461B689847AC
:102AC00002B010BD4B1E1BB2EDE70B4815F0C6F966
:102AD00030F00802F0D043F201429042ECD011F005
:102AE000AFFDE9E70023DEE74C4D0020744D0020E8
:102AF000E8410020484D0020984D0020F0B587B0F7
:102B00000021142201A8FCF71DFC9DF811509DF82E
:102B100012209DF814309DF813601749DFF864E027
:102B200009788DF81010012464F3030564F303029F
:102B300064F3030306F0F00664F3071564F3071269
:102B400064F307136FF3071600270C488DF8115034
:102B500001A98DF808408DF812208DF814308DF8F9
:102B60001360CDF804E0039715F0A4F808B9044BFE
:102B70001C7007B0F0BD00BFE8410020984D002058
:102B8000744D00207D2902000146014815F064B80B
:102B9000984D00200000000030B50378022B85B06E
:102BA0004AD01BB110F00EFF05B030BD4368B3F939
:102BB000000020F0D7FC9FED241B9FED250B044661
:102BC0000D461CF08DFA29A3D3E9002351EC100B1C
:102BD00020F03EFD02460B462046294620F062FECC
:102BE00021F018F81C4B9FED1D7AD3ED007A1C4B99
:102BF0001C4A06EE900AC6EEA77A04A8022167EEE8
:102C0000877AFCEEE77ACDED017ABDF80440053411
:102C100083FB0453E417C4EBA30303EB83035B00C0
:102C200020F8023D11F04AFD0028BBD011F008FD4C
:102C300010F0C8FE05B030BD0B4B00221A7010F02A
:102C4000C1FE05B030BD00BF000000000000244000
:102C50000000000000000040704D002000007A4499
:102C600067666666592A0200444D0020000000A0F5
:102C7000AAAAFA3F312836D930B52C4CA37985B0B1
:102C8000054653BB2A4B2B4918680090684610F044
:102C900049FE50B3082806D011F0D2FC10F09CFF7A
:102CA00008B111F0CDFC2448244A012112F0E8F9C2
:102CB000044680B94FF400434FF4FA700021E3FB5F
:102CC00005014FF47A72002321F01EF922460146D5
:102CD0001B4812F0E7F905B030BDE07903F002FAC5
:102CE0000028CFD0F7E701207047E2788DF80B205D
:102CF0000124052201A98DF804008DF805008DF846
:102D000007008DF809008DF80C008DF80A408DF849
:102D100006208DF8082010F0D3FE0028BAD12146F5
:102D2000084810F0F7FE0028B4D1B7E74C4D00205A
:102D3000D0510400992B0200D451040081290200D3
:102D4000784D00206C4D0020002832D0002930D072
:102D5000F0B5514A514B426003600F6883B0002FB9
:102D600000F08F800B6933BB4B69002B40F08680ED
:102D70004B4B4FF07E521A60CA898B899A427DD3A1
:102D80000C1D0FCC474EDFF830C135460FC594E817
:102D90000F0096F806E0CCF8007085E80F00344686
:102DA000BEF1000F1ED0F07903F07EF9A8B103B098
:102DB000F0BD0E2070474A69002A5FD0134407EE29
:102DC000903A07EE102AF8EE677AB8EE477A344B5D
:102DD000C7EE277AC3ED007ACEE7F07903F0A2F9C7
:102DE0000028E4D162794FF0A04302F5E07200219F
:102DF00043F82210227902F5E07243F82210A278FB
:102E000002F5E07243F822100EF026FF00283BD0B6
:102E100002AD032305F8043D2079234A0023294607
:102E20008DF806308DF807308DF805300EF01EFF56
:102E300008B111F005FC207901210FF001F860794B
:102E400001210EF0FDFF194B194918680190284621
:102E500010F068FD0028AAD1164C0123237010F051
:102E6000D3FE0028A3D1237803F0FF00002B9ED0CF
:102E7000237803F0FF00002BF5D198E7012003B081
:102E8000F0BD0E2003B0F0BD0EF098FE0028BFD0BC
:102E900011F0D6FBBCE700BF892B0200FD2A02001F
:102EA000704D00204C4D0020052A0200D051040036
:102EB000992B0200444D0020484D0020162800D0D8
:102EC000704708B54FF0A043D3F81005C0F3805009
:102ED00000B108BD0146044A11F0F0FB0028F8D00B
:102EE000BDE8084011F0ACBBED2E020030B55B4DE3
:102EF0005B4C2A6883B0142300BF00BF00BF00BF33
:102F000000BF00BF00BF00BFA2422FD000BF00BF64
:102F100000BF00BF00BF00BF00BF00BF00BF00BFB9
:102F200000BF00BF00BF00BF00BF00BF00BF00BFA9
:102F300000BF00BF00BF00BF00BF00BF00BF00BF99
:102F400000BF00BF00BF00BF00BF00BF00BF00BF89
:102F500000BF00BF00BF00BF00BF00BF00BF00BF79
:102F600000BF00BF00BF00BF00BF00BF013BC3D117
:102F70000C2003F0D7F8B8B111F062FB04203949F6
:102F800000F050FF002858D10DF1070001F0AAF819
:102F900001F00AF900285AD011F052FB324B3148A7
:102FA0001B68984703B030BD32232A6800BF00BFBA
:102FB00000BF00BF00BF00BF00BF00BFA2422FD0B4
:102FC00000BF00BF00BF00BF00BF00BF00BF00BF09
:102FD00000BF00BF00BF00BF00BF00BF00BF00BFF9
:102FE00000BF00BF00BF00BF00BF00BF00BF00BFE9
:102FF00000BF00BF00BF00BF00BF00BF00BF00BFD9
:1030000000BF00BF00BF00BF00BF00BF00BF00BFC8
:1030100000BF00BF00BF00BF00BF00BF00BF00BFB8
:10302000013BC3D1114800F04FFE0028A4D1042079
:103030000C4900F0F7FE0028A6D011F001FB0DF1BD
:10304000070001F04FF801F0AFF80028A4D10C20E0
:1030500003F048F800289FD1A0E700BFA842002055
:103060000024F400C44D0020B44D0020B84D0020D1
:10307000F0B54F4F4F4C3A6883B0142306460D46C7
:1030800000BF00BF00BF00BF00BF00BF00BF00BF48
:10309000A2422FD000BF00BF00BF00BF00BF00BFD3
:1030A00000BF00BF00BF00BF00BF00BF00BF00BF28
:1030B00000BF00BF00BF00BF00BF00BF00BF00BF18
:1030C00000BF00BF00BF00BF00BF00BF00BF00BF08
:1030D00000BF00BF00BF00BF00BF00BF00BF00BFF8
:1030E00000BF00BF00BF00BF00BF00BF00BF00BFE8
:1030F00000BF00BF013BC3D10C2003F013F808B19F
:1031000003B0F0BD32233A6800BF00BF00BF00BF6C
:1031100000BF00BF00BF00BFA2422FD000BF00BF52
:1031200000BF00BF00BF00BF00BF00BF00BF00BFA7
:1031300000BF00BF00BF00BF00BF00BF00BF00BF97
:1031400000BF00BF00BF00BF00BF00BF00BF00BF87
:1031500000BF00BF00BF00BF00BF00BF00BF00BF77
:1031600000BF00BF00BF00BF00BF00BF00BF00BF67
:1031700000BF00BF00BF00BF00BF00BF013BC3D105
:103180000D4800F0A1FD0028BAD13046294600F0D4
:10319000D1FE0028B4D10DF1070000F0A3FF01F02B
:1031A00003F80028ACD10C2002F09CFFA8E700BF78
:1031B000A84200200024F400B84D002070B54E4D08
:1031C0004E4C2A6882B01423064600BF00BF00BFE1
:1031D00000BF00BF00BF00BF00BFA2422FD000BF92
:1031E00000BF00BF00BF00BF00BF00BF00BF00BFE7
:1031F00000BF00BF00BF00BF00BF00BF00BF00BFD7
:1032000000BF00BF00BF00BF00BF00BF00BF00BFC6
:1032100000BF00BF00BF00BF00BF00BF00BF00BFB6
:1032200000BF00BF00BF00BF00BF00BF00BF00BFA6
:1032300000BF00BF00BF00BF00BF00BF00BF013B19
:10324000C3D10C2002F06EFF08B102B070BD322372
:103250002A6800BF00BF00BF00BF00BF00BF00BFA3
:1032600000BFA2422FD000BF00BF00BF00BF00BF01
:1032700000BF00BF00BF00BF00BF00BF00BF00BF56
:1032800000BF00BF00BF00BF00BF00BF00BF00BF46
:1032900000BF00BF00BF00BF00BF00BF00BF00BF36
:1032A00000BF00BF00BF00BF00BF00BF00BF00BF26
:1032B00000BF00BF00BF00BF00BF00BF00BF00BF16
:1032C00000BF00BF00BF013BC3D10D4800F0FCFCB4
:1032D0000028BAD1304600F08BFE0028B5D10DF1A0
:1032E000070000F0FFFE00F05FFF0028ADD10C20CA
:1032F00002F0F8FEA9E700BFA84200200024F40075
:10330000B84D002070B54E4D4E4C2A6882B0142343
:10331000064600BF00BF00BF00BF00BF00BF00BF28
:1033200000BFA2422FD000BF00BF00BF00BF00BF40
:1033300000BF00BF00BF00BF00BF00BF00BF00BF95
:1033400000BF00BF00BF00BF00BF00BF00BF00BF85
:1033500000BF00BF00BF00BF00BF00BF00BF00BF75
:1033600000BF00BF00BF00BF00BF00BF00BF00BF65
:1033700000BF00BF00BF00BF00BF00BF00BF00BF55
:1033800000BF00BF00BF013BC3D10C2002F0CAFE4A
:1033900008B102B070BD32232A6800BF00BF00BF71
:1033A00000BF00BF00BF00BF00BFA2422FD000BFC0
:1033B00000BF00BF00BF00BF00BF00BF00BF00BF15
:1033C00000BF00BF00BF00BF00BF00BF00BF00BF05
:1033D00000BF00BF00BF00BF00BF00BF00BF00BFF5
:1033E00000BF00BF00BF00BF00BF00BF00BF00BFE5
:1033F00000BF00BF00BF00BF00BF00BF00BF00BFD5
:1034000000BF00BF00BF00BF00BF00BF00BF013B47
:10341000C3D10D4800F058FC0028BAD1304600F066
:1034200013FE0028B5D10DF1070000F05BFE00F09F
:10343000BBFE0028ADD10C2002F054FEA9E700BF6E
:10344000A84200200024F400B84D0020F0B5854BC0
:103450001A7885B06ABB01221A70032800F25F81D6
:10346000DFE810F0F800FD00FB002A001B0700F168
:1034700061810DF10704204600F066FC0446C8B9DE
:10348000284600F02FFE9DF8073043F008031E4346
:10349000214630468DF8076000F07AFC50B9284686
:1034A00000F020FE00F080FE20B90C2002F01AFE91
:1034B00000B9002005B0F0BD30260EF0CDFB20B9DC
:1034C0000EF07CFB002840F0338104AD032405F8A6
:1034D000084D002329461620634A8DF809408DF8CF
:1034E0000A308DF80B300EF0C1FB08B111F0A8F8CE
:1034F0000A2002F0F7FD0028FAD10C2002F012FE9B
:10350000002840F012810B2002F0ECFD002840F072
:103510000981564F564C3A6847F2305300BF00BFFE
:1035200000BF00BF00BF00BF00BF00BFA2422FD03E
:1035300000BF00BF00BF00BF00BF00BF00BF00BF93
:1035400000BF00BF00BF00BF00BF00BF00BF00BF83
:1035500000BF00BF00BF00BF00BF00BF00BF00BF73
:1035600000BF00BF00BF00BF00BF00BF00BF00BF63
:1035700000BF00BF00BF00BF00BF00BF00BF00BF53
:1035800000BF00BF00BF00BF00BF00BF00BF00BF43
:10359000013BC3D1162001210EF052FC14233A68DE
:1035A00000BF00BF00BF00BF00BF00BF00BF00BF23
:1035B000A2422FD000BF00BF00BF00BF00BF00BFAE
:1035C00000BF00BF00BF00BF00BF00BF00BF00BF03
:1035D00000BF00BF00BF00BF00BF00BF00BF00BFF3
:1035E00000BF00BF00BF00BF00BF00BF00BF00BFE3
:1035F00000BF00BF00BF00BF00BF00BF00BF00BFD3
:1036000000BF00BF00BF00BF00BF00BF00BF00BFC2
:1036100000BF00BF013BC3D10C2002F083FD48B3C3
:1036200011F00EF800F086FD00286AD1284600F05F
:1036300059FD0DF1060000F05FFB00286CD1284613
:1036400000F050FD9DF806301A063FF50FAF082038
:1036500005B0F0BD062005B0F0BD20262DE71026F0
:103660002BE700BFB04D0020BD2E0200A842002075
:103670000024F40032233A6800BF00BF00BF00BF3F
:1036800000BF00BF00BF00BFA2422FD000BF00BFDD
:1036900000BF00BF00BF00BF00BF00BF00BF00BF32
:1036A00000BF00BF00BF00BF00BF00BF00BF00BF22
:1036B00000BF00BF00BF00BF00BF00BF00BF00BF12
:1036C00000BF00BF00BF00BF00BF00BF00BF00BF02
:1036D00000BF00BF00BF00BF00BF00BF00BF00BFF2
:1036E00000BF00BF00BF00BF00BF00BF013BC3D190
:1036F000174800F0E9FA002892D100F01BFD0028DD
:1037000094D010F09DFF284600F0ECFC0DF106006F
:1037100000F0F2FA002892D010F092FF8FE7072015
:1037200005B0F0BD10F08CFFF3E610F089FFEAE67B
:1037300002ADDBE60420294600F074FB28B90DF148
:103740000704204600F0CEFC95E610F079FFF6E77E
:10375000B84D0020634B187800B9704730B500228F
:1037600083B01620604D1A700EF0CCFB16200EF0C0
:10377000F9FB5E4C2A68142300BF00BF00BF00BFE6
:1037800000BF00BF00BF00BFA2422FD000BF00BFDC
:1037900000BF00BF00BF00BF00BF00BF00BF00BF31
:1037A00000BF00BF00BF00BF00BF00BF00BF00BF21
:1037B00000BF00BF00BF00BF00BF00BF00BF00BF11
:1037C00000BF00BF00BF00BF00BF00BF00BF00BF01
:1037D00000BF00BF00BF00BF00BF00BF00BF00BFF1
:1037E00000BF00BF00BF00BF00BF00BF013BC3D18F
:1037F0000C2002F097FC08B103B030BD32232A68D8
:1038000000BF00BF00BF00BF00BF00BF00BF00BFC0
:10381000A2422FD000BF00BF00BF00BF00BF00BF4B
:1038200000BF00BF00BF00BF00BF00BF00BF00BFA0
:1038300000BF00BF00BF00BF00BF00BF00BF00BF90
:1038400000BF00BF00BF00BF00BF00BF00BF00BF80
:1038500000BF00BF00BF00BF00BF00BF00BF00BF70
:1038600000BF00BF00BF00BF00BF00BF00BF00BF60
:1038700000BF00BF013BC3D11D4800F025FA00285E
:10388000BAD10DF1060000F037FA04460028B3D192
:103890000DF1070000F026FC9DF90630002B16DB29
:1038A00000F082FC0028A7D10C2002F01BFC0028AD
:1038B000A2D10B2002F036FC00289DD10C2002F092
:1038C00031FC002898D10A2002F02CFC94E7204615
:1038D000782100F05DFA00288ED10DF1070000F08C
:1038E00001FCDDE7B04D0020A84200200024F400D8
:1038F000B84D0020B8B10368ABB143689BB1C26852
:103900008AB130B55B495C4C8B600568037A4D60C9
:1039100083B00B70226000F0D1F90A2002F0C4FBE2
:1039200018B103B030BD0E2070470B2002F0BCFB75
:103930000028F6D10C2002F0B7FB0028F1D10A20B4
:1039400002F0D0FB0028FAD10B2002F0CBFB0028BC
:10395000E7D10C2002F0E6FB0028E2D1474D484CAD
:103960002A6847F2305300BF00BF00BF00BF00BF4E
:1039700000BF00BF00BFA2422FD000BF00BF00BFEA
:1039800000BF00BF00BF00BF00BF00BF00BF00BF3F
:1039900000BF00BF00BF00BF00BF00BF00BF00BF2F
:1039A00000BF00BF00BF00BF00BF00BF00BF00BF1F
:1039B00000BF00BF00BF00BF00BF00BF00BF00BF0F
:1039C00000BF00BF00BF00BF00BF00BF00BF00BFFF
:1039D00000BF00BF00BF00BF00BF013BC3D1142325
:1039E0008DF8060000BF00BF00BF00BF00BF00BFD2
:1039F00000BF00BFA2422FD000BF00BF00BF00BF6A
:103A000000BF00BF00BF00BF00BF00BF00BF00BFBE
:103A100000BF00BF00BF00BF00BF00BF00BF00BFAE
:103A200000BF00BF00BF00BF00BF00BF00BF00BF9E
:103A300000BF00BF00BF00BF00BF00BF00BF00BF8E
:103A400000BF00BF00BF00BF00BF00BF00BF00BF7E
:103A500000BF00BF00BF00BF013BC3D10C2002F07C
:103A600061FB78B100F0A0FB002800F01B8105206D
:103A700057E700BFB84D0020B44D0020A8420020F9
:103A80000024F40032232A6800BF00BF00BF00BF3B
:103A900000BF00BF00BF00BFA2422FD000BF00BFC9
:103AA00000BF00BF00BF00BF00BF00BF00BF00BF1E
:103AB00000BF00BF00BF00BF00BF00BF00BF00BF0E
:103AC00000BF00BF00BF00BF00BF00BF00BF00BFFE
:103AD00000BF00BF00BF00BF00BF00BF00BF00BFEE
:103AE00000BF00BF00BF00BF00BF00BF00BF00BFDE
:103AF00000BF00BF00BF00BF00BF00BF013BC3D17C
:103B00006B4800F0E1F80028ACD10DF1060000F0A0
:103B1000BDFA0028A6D10DF1070000F0E3FA9DF8E8
:103B20000640A4F18104B4FA84F4640900F03CFB7B
:103B3000002800F0B880002C99D02A685D4C5E4DBA
:103B4000142300BF00BF00BF00BF00BF00BF00BF05
:103B500000BFA2422FD000BF00BF00BF00BF00BF08
:103B600000BF00BF00BF00BF00BF00BF00BF00BF5D
:103B700000BF00BF00BF00BF00BF00BF00BF00BF4D
:103B800000BF00BF00BF00BF00BF00BF00BF00BF3D
:103B900000BF00BF00BF00BF00BF00BF00BF00BF2D
:103BA00000BF00BF00BF00BF00BF00BF00BF00BF1D
:103BB00000BF00BF00BF013BC3D10C2002F0B2FA2E
:103BC00000287FF4AEAE32232A6800BF00BF00BFDA
:103BD00000BF00BF00BF00BF00BFA2422FD000BF88
:103BE00000BF00BF00BF00BF00BF00BF00BF00BFDD
:103BF00000BF00BF00BF00BF00BF00BF00BF00BFCD
:103C000000BF00BF00BF00BF00BF00BF00BF00BFBC
:103C100000BF00BF00BF00BF00BF00BF00BF00BFAC
:103C200000BF00BF00BF00BF00BF00BF00BF00BF9C
:103C300000BF00BF00BF00BF00BF00BF00BF013B0F
:103C4000C3D11B4800F040F800287FF46AAE0DF1A4
:103C5000060000F051F800287FF463AE0DF1070074
:103C600000F040FA00F0A0FA00287FF45AAE0C20D1
:103C700002F038FA00287FF454AE9DF80630DB06D7
:103C80007FF5F5AE0B2002F04DFA00287FF449AE27
:103C90000C2002F047FA00287FF443AE0A2002F01D
:103CA00041FA3EE604460C2002F01CFA43E700BF4E
:103CB000B84D00200024F400A8420020014B00224F
:103CC0001A607047CC4D002070B50A4D2A680AB1C1
:103CD000012070BD064613464068B168FCF77AFDC6
:103CE00004460028F4D170680EF00EFF2E602046C6
:103CF00070BD00BFCC4D0020F0B5124B85B01B68E5
:103D000000228DF80F20D3B15F681E78012405468C
:103D100031463846009423460DF10F020EF020FF85
:103D200010B1204605B0F0BD384631462A4623463C
:103D30000EF06AFF003018BF012005B0F0BD012071
:103D400005B0F0BDCC4D0020F0B5104B85B01B6820
:103D500001248DF80F405BB15F681E780094054622
:103D6000314638460DF10F0223460EF0F9FE10B130
:103D7000204605B0F0BD384631462A4623460EF0AF
:103D800043FF003018BF012005B0F0BDCC4D00202E
:103D9000084201D00220704750EA0103FAD013F024
:103DA000830FF7D12DE9F0431D4F3B6885B083B1F8
:103DB00004AA012602F8056DD3F8049093F8008058
:103DC00000960D4604464146484633460EF0C8FE6E
:103DD00018B1012005B0BDE8F083484641460DF119
:103DE0000A0233460EF010FF0028F2D19DF80A3087
:103DF0003A681C4324EA05058DF80A50002AE8D0E9
:103E000053681178009003AA184602238DF80C60BD
:103E10008DF80D500EF0A4FE003018BF0120D9E738
:103E2000CC4D002004281ED82DE9F0413F4B1E5CEC
:103E300086B0D6B1C9B13E4B1B6802228DF80F2067
:103E40006BB1D3F804801F7801230D460446394630
:103E5000404600930DF10F020EF082FE48B10120A2
:103E600006B0BDE8F08102207047022006B0BDE830
:103E7000F08140463946334604AA0EF0C5FE0028BC
:103E8000EDD1013C032C2CD8DFE804F023140233DD
:103E90009DF810409DF811209DF812109DF81330E8
:103EA0009DF814602E7102EB042203EB01232A809B
:103EB0006B80DBE79DF810409DF811209DF81210F3
:103EC0009DF8133002EB042203EB01232A806B8060
:103ED000CCE79DF812209DF8133003EB02236B8092
:103EE000C4E79DF810209DF8113003EB02232B80CE
:103EF000BCE79DF810E09DF811109DF812709DF838
:103F000013209DF816609DF817309DF814C09DF899
:103F1000154085F804C001EB0E2102EB072203EBEC
:103F2000062329806A80EB806C719FE7D8510400DA
:103F3000CC4D002000B585B00523B0F57A7F8DF813
:103F4000083003D9022005B05DF804FB01F5C34138
:103F5000234B28319942F5D8224BA3FB0023DB08E1
:103F600003EB8302A0EB420080B2072888BF013335
:103F700003385B000428DBB298BF43F001038DF8DF
:103F80000930194BCA1783FB0103C2EBA3134FF48B
:103F90007A7202FB131140F2ED229142C8BF013345
:103FA0005B00FA39DBB2B1F5FA7F38BF43F00103A9
:103FB0008DF80B300D4B1B68002000228DF80A0095
:103FC0008DF80C2053B1586819780092052302AA85
:103FD0000EF0C6FD003018BF0120B4E70120B2E7A3
:103FE000F8240100CDCCCCCCD34D6210CC4D0020B8
:103FF000B0B170B5134B84B01B6811228DF80B2043
:104000005BB15E681D780123044629463046009363
:104010000DF10B020EF0A4FD20B1012004B070BD23
:10402000022070473046294603AA02230EF0ECFD19
:104030000028F2D19DF80D209DF80C3003EB0223EF
:104040002380EBE7CC4D002000B50F4B85B01B68FB
:104050008DF80D001122000A8DF80E008DF80C204D
:104060006BB1197858680023009303AA03230EF05C
:1040700077FD003018BF012005B05DF804FB01207A
:1040800005B05DF804FB00BFCC4D0020B8B1F0B521
:10409000134B85B01B6820228DF80F208BB15F6811
:1040A0001E780124054631463846009423460DF11A
:1040B0000F020EF055FD38B1204605B0F0BD0220CC
:1040C0007047012005B0F0BD384631462A462346E8
:1040D0000EF09AFD003018BF012005B0F0BD00BF02
:1040E000CC4D0020F0B5124B85B01B68E0228DF856
:1040F0000F20D3B15F681E7801240546314638464B
:10410000009423460DF10F020EF02AFD10B1204657
:1041100005B0F0BD384631462A4623460EF074FD00
:10412000003018BF012005B0F0BD012005B0F0BD82
:10413000CC4D0020F0B51B4D85B02B68F42100223A
:104140008DF80E108DF80F205BB15F681E7801248A
:1041500038463146009423460DF10F020EF000FD63
:1041600010B1012005B0F0BD384631460DF10D0209
:1041700023460EF049FD0028F3D19DF80D30DB06F3
:10418000EFD52B68002BECD05A68197800902346A5
:1041900010460DF10E020EF0E3FC003018BF0120B6
:1041A00005B0F0BDCC4D002010B5074C23684BB1D5
:1041B00058680EF0B9FC236858680EF055FC0020D2
:1041C000206010BD012010BDCC4D002000B5074B74
:1041D00083B0002101221B698DF804108DF80520A1
:1041E00001A8984703B05DF804FB00BFD04D002044
:1041F00008B50B4B5B68834200D008BD4FF0A0426E
:10420000D2F81005D84010F00100F6D10146054A59
:1042100010F054FA0028F0D0BDE8084010F010BAB1
:10422000D04D0020CD410200E0B18368D3B1C36816
:10423000C3B10369B3B130B5184C037D237503696D
:104240002361037845688168C268237083B00023C6
:1042500020466560A160E260637500F005F918B161
:1042600003B030BD0E2070470DF1070000F020F9BB
:10427000034608B11846F3E700F0E0FA0028EFD152
:1042800000F006F903460028F4D162684FF0A0411F
:1042900002F5E07241F82230E2E700BFD04D002085
:1042A000274B5A7D0AB10020704730B5012283B0F8
:1042B0005A755D680DF0D0FC10B90DF07FFC80B927
:1042C00002AC032304F8043D2846002321461D4A7E
:1042D0008DF806308DF807308DF805300DF0C6FCEE
:1042E00008B103B030BD284601210DF0A9FD1448E6
:1042F00000F0BAF80028F4D1134800F001F90028C2
:10430000EFD10DF1010000F0CFF90028E9D19DF8BF
:104310000130DA0704D49B070AD400F0B9F8E0E7CB
:10432000204600F0E5F90028DBD19DF80130F2E7E6
:104330000DF1020000F03CFA0028EED0D1E700BFFA
:10434000D04D0020F1410200E051040038B50C4D81
:10435000687D00B938BD002328466B7500F084F8ED
:1043600000B138BD00F06AFA0028F3D100F090F8EF
:1043700004460028EED168680DF0F4FD204638BDF3
:10438000D04D002000B5124885B000F06DF80190C6
:1043900030B107EE900AB8EE670A05B05DF804FB8D
:1043A00003A800F0A5F948B900F072F860B99DEDD6
:1043B000030ABBEECA0A05B05DF804FB10F040F931
:1043C00000F066F80028F2D010F03AF9EFE700BFED
:1043D000D04D002008B50A4800F046F860B900F05A
:1043E00029F930B900F054F808B110F029F900208B
:1043F00008BD10F025F9F5E710F022F9EFE700BF4E
:10440000D04D002000B5094B85B01B688DF80C001D
:104410008DF80D10197898680023009303AA0223E1
:104420000EF09EFB05B05DF804FB00BFE84D0020D8
:10443000F0B585B004AA0B4D02F8010D2B681E786B
:10444000986801240F460094314623460EF088FBFD
:1044500030B929683A468868097823460EF0D4FBBB
:1044600005B0F0BDE84D002038B50346074DD968CA
:104470002B60002280681346FCF7ACF9044618B99B
:104480002B6898680EF040FB204638BDE84D0020B0
:1044900010B5064C236898680EF046FB23689868B0
:1044A0000EF0E2FA0020206010BD00BFE84D0020B1
:1044B00070B5124C236884B0EBB104AA0F2102F846
:1044C000011D012519780646986800952B460EF0C7
:1044D00047FB08B104B070BD22682B469068117884
:1044E00032460EF091FB0028F4D13378B12B0CBF8B
:1044F00000200520EEE7082004B070BDE84D002044
:1045000030B54B4D2B6885B0ABB188B102788DF8D2
:104510000D200B228DF80C20197804469868002392
:10452000009303AA02230EF01BFB38B105B030BD87
:104530000E2005B030BD082005B030BD63882A6864
:104540001B0A0D218DF80D308DF80C109368117831
:10455000009003AA184602230EF002FB0028E5D1C2
:10456000A2782B688DF80D200C228DF80C209A680B
:10457000197800900223104603AA0EF0F1FA0028E1
:10458000D4D123792A6803F07F0310218DF80D30F0
:104590008DF80C1093681178009003AA1846022336
:1045A0000EF0DEFA034608B11846BFE762792968C3
:1045B00002F0FD0211208DF80D208DF80C008868A6
:1045C0000978009303AA02230EF0CAFA03460028D2
:1045D000EAD1A1792A688DF80D1012218DF80C10FE
:1045E00090681178009303AA02230EF0B9FA00280C
:1045F0009CD11420E179FFF705FF002896D103A98B
:104600001A20FFF715FF002890D1227A9DF80C3070
:10461000D2074BBF03F0030303F0020343F001038F
:10462000DBB219461A208DF80C30FFF7EBFE7DE760
:10463000E84D002070B51B4C236884B0F3B104AA88
:10464000112602F8056D01259868197800952B460A
:104650000EF086FA08B104B070BD22682B4690684F
:1046600011780DF10A020EF0CFFA0028F3D19DF86F
:104670000A3013F0010504D03046ECE7082004B0FE
:1046800070BD22688DF80C6043F001038DF80A308C
:104690008DF80D3011789068009503AA02230EF072
:1046A0005FFAD8E7E84D002070B5104D2B6884B054
:1046B000CBB1A8B104AA272102F8011D012619785F
:1046C00004469868009633460EF04AFA30B92968D5
:1046D00022468868097833460EF096FA04B070BD19
:1046E0000E2004B070BD082004B070BDE84D00205D
:1046F00070B52E4D2B6884B093B170B104AA2821F7
:1047000002F8031D0126197804469868009633467E
:104710000EF026FA38B104B070BD0E2004B070BDA2
:10472000082004B070BD2B680DF10A029868197852
:1047300033460EF069FA0028EDD104AA292302F8C5
:10474000023D2B6819789868009633460EF008FAF7
:104750000028E0D12B680DF10B02986819783346D8
:104760000EF052FA0028D6D104AA2A2302F8013DFD
:104770002B6819789868009633460EF0F1F90028F6
:10478000C9D12A6833469068117803AA0EF03CFA22
:104790000028C0D19DF80B309DF80C109DF80A2020
:1047A0001B0203EB014313442360B4E7E84D0020F0
:1047B00070B5214C236884B093B170B104AA2B2149
:1047C00002F8021D012619780546986800963346BE
:1047D0000EF0C6F938B104B070BD0E2004B070BD43
:1047E000082004B070BD236803AA9868197833467E
:1047F0000EF00AFA0028EED104AA2C2302F8013D9B
:10480000236819789868009633460EF0A9F90028B5
:10481000E1D122683346906811780DF10D020EF057
:10482000F3F90028D7D19DF80D209DF80C3003EB4B
:1048300002232B80CFE700BFE84D0020F0B51C4CD1
:10484000236885B0002B30D004AA102702F8057D1C
:10485000012519780646986800952B460EF080F9D8
:1048600008B105B0F0BD22682B46906811780DF1B3
:104870000A020EF0C9F90028F3D19DF80A2022F0AF
:10488000700343EA0616F6B2B242EAD023688DF806
:104890000D209A688DF80C7019780090022310464C
:1048A00003AA0EF05DF905B0F0BD082005B0F0BD1B
:1048B000E84D0020014B00201B691847EC4D0020FB
:1048C00008B50B4B5B68834200D008BD4FF0A04297
:1048D000D2F81005D84010F00100F6D10146054A83
:1048E0000FF0ECFE0028F0D0BDE808400FF0A8BEA5
:1048F000EC4D0020B5480200C8B18368BBB1C36865
:10490000ABB103699BB130B5204C23610378456896
:104910008168C268237083B0002320466560A1606F
:10492000E260237500F05EF918B103B030BD0E20CF
:10493000704700F07BF90028F7D104F1160000F071
:1049400005FA0028F1D1124800F09AF90028ECD1BC
:104950000DF1030000F0D6F90028E6D19DF80330F0
:104960009A0702D100F052F9DFE701A800F05AFAE5
:104970000028DAD10DF1060000F09AFA0028D4D10F
:104980009DF803309B07E3D1ECE700BFEC4D00201E
:10499000EC51040030B51B4C237D83B013B10020D3
:1049A00003B030BD01232046237500F01BF9002819
:1049B000F6D1154800F064F90028F1D100F026F98D
:1049C0000028EDD165680DF047F918B90DF0F6F83B
:1049D0000028E5D102A9032301F8043D284600235D
:1049E0000A4A8DF806308DF807308DF805300DF045
:1049F0003DF904460028D3D1284601210DF020FAC4
:104A00002046CDE7EC4D0020F4510400C1480200DF
:104A100038B50D4C207D00B938BD656800232846A7
:104A200023750DF06FFA28460DF09CFA204600F031
:104A3000D9F80028F0D1054800F022F90028EBD180
:104A4000BDE8384000F0E2B8EC4D0020F051040021
:104A500070B5284884B000F0C5F818B180B200B233
:104A600004B070BD0DF10E0000F0DCF900283DD15E
:104A700000F0CCF8B8BB1F4CA67DB4F91C503046F2
:104A80001EF080FD00221C4B1EF0E2FD1FF0C2F85C
:104A9000E17DBDF90E30B4F91E205B1B891B07EECA
:104AA000903A07EE101A531BF8EEE76ABAEEEF7A67
:104AB00007EE903A26EE877AF8EEE77AC7EE277A85
:104AC00007EE100A77EE277AFDEEE77ACDED017A50
